:100000000C9434000C943E000C943E000C943E0082
:100010000C943E000C943E000C943E000C943E0068
:100020000C943E000C943E000C943E000C943E0058
:100030000C943E000C943E000C943E000C943E0048
:100040000C943E000C943E000C943E000C943E0038
:100050000C943E000C943E000C943E000C943E0028
:100060000C943E000C943E0011241FBECFEFD8E04C
:10007000DEBFCDBF0E9440000C9465000C940000D0
:1000800080E284B983EC8AB98CE38BB939B189B148
:10009000887029B199B19072422F407124FD02C03D
:1000A000882341F091110FC032FD09C0882311F05F
:1000B000411109C080E095B1892B85B9E7CF88232C
:0E00C000C9F34111F7CF80E2F6CFF894FFCFDD
:00000001FF
